:100000000C9434000C9451000C9451000C94510049
:100010000C9451000C9451000C9451000C9451001C
:100020000C9451000C9451000C9451000C9451000C
:100030000C9451000C9451000C9451000C945100FC
:100040000C9451000C9451000C9451000C945100EC
:100050000C9451000C9451000C9451000C945100DC
:100060000C9451000C94510011241FBECFEFD8E026
:10007000DEBFCDBF11E0A0E0B1E0E4E7F1E002C0F7
:1000800005900D92AE30B107D9F721E0AEE0B1E0B6
:1000900001C01D92A232B207E1F70E9464000C94E5
:1000A000B8000C940000CF93C82F8A3019F48DE06B
:1000B0000E9453008091C00085FFFCCFC093C60012
:1000C00090E080E0CF9108951092C50087E680937C
:1000D000C4001092C00088E08093C10086E0809345
:1000E000C20083E590E0909317018093160110926F
:1000F00019011092180182E08093110110921B01E6
:1001000010921A018EE091E090931F0180931E01DE
:1001100080E091E00E948D00FFCF0F931F93CF935B
:10012000DF93E0911E01F0911F012381EC0110E0AB
:1001300000E021FD08C00FEF1FEF14C00995892BC7
:1001400011F00FEF1FEF899160911E0170911F0157
:10015000DB011896ED91FC918111F0CF8AE00995B1
:10016000892B49F7C801DF91CF911F910F91089515
:04017000F894FFCF31
:0E01740048656C6C6F2C20776F726C642100F4
:00000001FF
